{
  "abi": [
    {
      "type": "constructor",
      "inputs": [
        {
          "name": "executionTemplate",
          "type": "address",
          "internalType": "address"
        }
      ],
      "stateMutability": "nonpayable"
    },
    {
      "type": "function",
      "name": "EXECUTION_ENV_TEMPLATE",
      "inputs": [],
      "outputs": [
        {
          "name": "",
          "type": "address",
          "internalType": "address"
        }
      ],
      "stateMutability": "view"
    },
    {
      "type": "function",
      "name": "getExecutionEnvironmentCustom",
      "inputs": [
        {
          "name": "user",
          "type": "address",
          "internalType": "address"
        },
        {
          "name": "control",
          "type": "address",
          "internalType": "address"
        },
        {
          "name": "callConfig",
          "type": "uint32",
          "internalType": "uint32"
        },
        {
          "name": "salt",
          "type": "bytes32",
          "internalType": "bytes32"
        }
      ],
      "outputs": [
        {
          "name": "executionEnvironment",
          "type": "address",
          "internalType": "address"
        }
      ],
      "stateMutability": "view"
    },
    {
      "type": "function",
      "name": "getOrCreateExecutionEnvironment",
      "inputs": [
        {
          "name": "user",
          "type": "address",
          "internalType": "address"
        },
        {
          "name": "control",
          "type": "address",
          "internalType": "address"
        },
        {
          "name": "callConfig",
          "type": "uint32",
          "internalType": "uint32"
        },
        {
          "name": "salt",
          "type": "bytes32",
          "internalType": "bytes32"
        }
      ],
      "outputs": [
        {
          "name": "executionEnvironment",
          "type": "address",
          "internalType": "address"
        }
      ],
      "stateMutability": "payable"
    },
    {
      "type": "event",
      "name": "ExecutionEnvironmentCreated",
      "inputs": [
        {
          "name": "user",
          "type": "address",
          "indexed": true,
          "internalType": "address"
        },
        {
          "name": "executionEnvironment",
          "type": "address",
          "indexed": true,
          "internalType": "address"
        }
      ],
      "anonymous": false
    }
  ],
  "bytecode": {
    "object": "0x60a0604052348015600e575f5ffd5b50604051610561380380610561833981016040819052602b91603b565b6001600160a01b03166080526066565b5f60208284031215604a575f5ffd5b81516001600160a01b0381168114605f575f5ffd5b9392505050565b6080516104dd6100845f395f81816096015261020201526104dd5ff3fe608060405260043610610033575f3560e01c806319f9cf6214610037578063d447616114610066578063d57c4dbd14610085575b5f5ffd5b61004a6100453660046102c9565b6100b8565b6040516001600160a01b03909116815260200160405180910390f35b348015610071575f5ffd5b5061004a6100803660046102c9565b610188565b348015610090575f5ffd5b5061004a7f000000000000000000000000000000000000000000000000000000000000000081565b5f5f6100c58686866101fa565b905060ff60f81b3084836040516020016100df919061031b565b604051602081830303815290604052805190602001206040516020016101089493929190610331565b604051602081830303815290604052805190602001205f1c9150816001600160a01b03163b5f0361017f57828151602083015ff59150816001600160a01b0316866001600160a01b03167f6ed96358b086d2aca68c2e2e4dc23fb45421ac513a7fc3127e34569833b3c64660405160405180910390a35b50949350505050565b5f5f6101958686866101fa565b905060ff60f81b3084836040516020016101af919061031b565b604051602081830303815290604052805190602001206040516020016101d89493929190610331565b60408051601f1981840301815291905280516020909101209695505050505050565b6040516060907f00000000000000000000000000000000000000000000000000000000000000009061022e602082016102a1565b601f1982820381018352601f90910116604052604f810180516001600160601b03908116606094851b17909152606f82018051821697841b979097179096526084810180519096169490911b939093179093526099820180516001600160e01b031660e09290921b919091179052919050565b61016b8061036683390190565b80356001600160a01b03811681146102c4575f5ffd5b919050565b5f5f5f5f608085870312156102dc575f5ffd5b6102e5856102ae565b93506102f3602086016102ae565b9250604085013563ffffffff8116811461030b575f5ffd5b9396929550929360600135925050565b5f82518060208501845e5f920191825250919050565b6001600160f81b031994909416845260609290921b6001600160601b0319166001840152601583015260358201526055019056fe6080604052348015600e575f5ffd5b5061014f8061001c5f395ff3fe60806040523661000b57005b5f3660605f5f73aaaaaaaaaaaaaaaaaaaaaaaaaaaaaaaaaaaaaaaa6001600160a01b03165f3673bbbbbbbbbbbbbbbbbbbbbbbbbbbbbbbbbbbbbbbb73cccccccccccccccccccccccccccccccccccccccc63222222226040516020016100749594939291906100ea565b60408051601f198184030181529082905261008e9161012c565b5f60405180830381855af49150503d805f81146100c6576040519150601f19603f3d011682016040523d82523d5f602084013e6100cb565b606091505b5091509150816100dd57805160208201fd5b8051945060200192505050f35b84868237606093841b6001600160601b0319908116919095019081529190921b909216601483015260e01b6001600160e01b0319166028820152602c01919050565b5f82518060208501845e5f92019182525091905056fea164736f6c634300081c000aa164736f6c634300081c000a",
    "linkReferences": {}
  },
  "methodIdentifiers": {
    "EXECUTION_ENV_TEMPLATE()": "d57c4dbd",
    "getExecutionEnvironmentCustom(address,address,uint32,bytes32)": "d4476161",
    "getOrCreateExecutionEnvironment(address,address,uint32,bytes32)": "19f9cf62"
  },
  "id": 73
}